:020000040800F2
:1000000068040020CD010008D1010008D3010008D8
:10001000D5010008D7010008D90100080000000040
:10002000000000000000000000000000DB010008EC
:10003000DD01000800000000DF010008E101000808
:10004000E3010008E3010008E3010008E301000800
:10005000E3010008E3010008E3010008E3010008F0
:10006000E3010008E3010008E3010008E3010008E0
:10007000E3010008E3010008E3010008E3010008D0
:10008000E3010008E3010008E3010008E3010008C0
:10009000E3010008E3010008E3010008E3010008B0
:1000A000E3010008E3010008E3010008E3010008A0
:1000B000E3010008E3010008E3010008E301000890
:1000C000E3010008E3010008E3010008E301000880
:1000D000E3010008E3010008E3010008E301000870
:1000E000E3010008E3010008E3010008E301000860
:1000F000E3010008E3010008E3010008E301000850
:10010000E3010008E3010008E3010008E30100083F
:10011000E3010008E3010008E3010008E30100082F
:10012000E3010008E3010008E3010008E30100081F
:1001300000F002F800F03AF80AA090E8000C8244BF
:100140008344AAF10107DA4501D100F02FF8AFF29C
:10015000090EBAE80F0013F0010F18BFFB1A43F0A5
:1001600001031847F402000014030000103A24BFF2
:1001700078C878C1FAD8520724BF30C830C144BF0C
:1001800004680C607047000000230024002500264E
:10019000103A28BF78C1FBD8520728BF30C148BFEA
:1001A0000B6070471FB51FBD10B510BD00F02BF8D8
:1001B0001146FFF7F7FF00F02FF900F049F803B4FC
:1001C000FFF7F2FF03BC00F051F8000008480047B9
:1001D000FEE7FEE7FEE7FEE7FEE7FEE7FEE7FEE7F7
:1001E000FEE7FEE703480449024A044B704700005B
:1001F0003101000868000020680400206800002029
:10020000704770477047754600F02CF8AE46050001
:100210006946534620F00700854618B020B5FFF721
:10022000E1FFBDE820404FF000064FF000074FF01F
:1002300000084FF0000B21F00701AC46ACE8C00904
:10024000ACE8C009ACE8C009ACE8C0098D4670470D
:1002500010B50446AFF300802046BDE81040FFF71C
:10026000AEBF00000048704704000020014918207C
:10027000ABBEFEE726000200704700000248C168DE
:1002800041F47071C1607047001001400B488169F2
:1002900041F0100181610A48016821F07F4101604D
:1002A000416821F0FF014160016841F04C5101605B
:1002B000416841F033014160704700000010024086
:1002C000001001400448C16841F4A071C160C168D8
:1002D00021F42071C1607047001001400448C168DA
:1002E00041F42071C160C16821F4A071C160704700
:1002F000001001400F4800210161C16014224261D9
:100300008161C161026842F00102026042680A4BE9
:100310001A4042600268094B1A400260026822F4E7
:1003200080220260426822F4FE0242608160C003C3
:1003300000F006B8001002400000FFF8FFFFF6FED4
:10034000024A1140014302480160704780FFFF1FCD
:1003500008ED00E010B50446FFF7CCFF154908682A
:1003600040F4803008600868400CFCD04FF4806096
:100370004860A41E4A68E0B242EA8040486048688B
:1003800040F4803048600C48026842F0320202605B
:10039000086840F0807008600868400EFCD048682B
:1003A00040F0020048604868C0F381000228FAD19A
:1003B00010BD000000100240002002400748816983
:1003C00041F00401816106480168064A114001605C
:1003D0000168054A114301607047000000100240A7
:1003E00000080140F0FFF0F0880088084FF0E0219D
:1003F0000A6922F004020A610649C00800EB4002C3
:100400000870C2EBC0104FF6FF7202EAC0004880CD
:1004100070470000000000200920FFF79BFF4820E4
:10042000FFF7E4FFFFF7CAFFFFF730FF094C206832
:10043000C00602D4FFF722FFF9E72068C00705D005
:1004400020684006F3D4FFF749FFF0E7FFF73AFFD3
:10045000EDE70000080801407804000800000020D3
:10046000040000006C0100087C0400080400002067
:0C04700064040000880100080000000087
:0400000508000131BD
:00000001FF
