:020000040800F2
:1000000070040020CD010008D1010008D3010008D0
:10001000D5010008D7010008D90100080000000040
:10002000000000000000000000000000DB010008EC
:10003000DD01000800000000DF010008E101000808
:10004000E3010008E3010008E3010008E301000800
:10005000E3010008E3010008E3010008E3010008F0
:10006000E3010008E3010008E3010008E3010008E0
:10007000E3010008E3010008E3010008E3010008D0
:10008000E3010008E3010008E3010008E3010008C0
:10009000E3010008E3010008E3010008E3010008B0
:1000A000E3010008E3010008E3010008E3010008A0
:1000B000E3010008E3010008E3010008E301000890
:1000C000E3010008E3010008E3010008E301000880
:1000D000E3010008E3010008E3010008E301000870
:1000E000E3010008E3010008E3010008E301000860
:1000F000E3010008E3010008E3010008E301000850
:10010000E3010008E3010008E3010008E30100083F
:10011000E3010008E30100088D070008E30100087F
:10012000E3010008E3010008E3010008E30100081F
:1001300000F002F800F03AF80AA090E8000C8244BF
:100140008344AAF10107DA4501D100F02FF8AFF29C
:10015000090EBAE80F0013F0010F18BFFB1A43F0A5
:1001600001031847EC0B00000C0C0000103A24BFF0
:1001700078C878C1FAD8520724BF30C830C144BF0C
:1001800004680C607047000000230024002500264E
:10019000103A28BF78C1FBD8520728BF30C148BFEA
:1001A0000B6070471FB51FBD10B510BD00F02BF8D8
:1001B0001146FFF7F7FF00F0E5FB00F049F803B444
:1001C000FFF7F2FF03BC00F051F8000008480047B9
:1001D000FEE7FEE7FEE7FEE7FEE7FEE7FEE7FEE7F7
:1001E000FEE7FEE703480449024A044B704700005B
:1001F0003101000870000020700400207000002011
:10020000704770477047754600F02CF8AE46050001
:100210006946534620F00700854618B020B5FFF721
:10022000E1FFBDE820404FF000064FF000074FF01F
:1002300000084FF0000B21F00701AC46ACE8C00904
:10024000ACE8C009ACE8C009ACE8C0098D4670470D
:1002500010B50446AFF300802046BDE81040FFF71C
:10026000AEBF0000004870470C0000200149182074
:10027000ABBEFEE726000200704710B500F05AF84A
:1002800001000FD06FF0630040F2DC5401290CD064
:1002900002290CD0032913D100210846BDE81040E3
:1002A00000F036B964210846F8E7642101E0014610
:1002B000642000F02DF92046BDE8104000F03ABB64
:1002C00010BD0000184810B5816941F0040181613A
:1002D000816941F0080181611448016821F0704191
:1002E0000160016841F03041016010480C30016844
:1002F00041F0800101600E48016821F07F410160FA
:10030000016841F05051016009480C30016821F04A
:100310008001016000F012FA00F0AAFABDE8104076
:100320005A2000F08BB80000001002400008014085
:10033000000C014070B500F03FF81E4CA04201DBFC
:10034000002070BD0021084600F0E2F8B42000F063
:1003500075F84FF4FA75284600F0ECFA00F02CF826
:10036000A04207DB5A2000F069F8284600F0E2FAC4
:10037000012070BD0021084600F0CAF8002000F0FE
:100380005DF84FF47A7000F0D5FA00F015F8A0424D
:100390004FF05A0006DB00F051F8284600F0CAFA88
:1003A000022070BD00F04AF8284600F0C3FA03208E
:1003B00070BD0000CDCC4C3E70B51B4D0020288098
:1003C0001A4C206820F080002060206840F08000F7
:1003D00020600A2000F0C2FA206820F0800020602F
:1003E000211F08684006FCD50F482438028842F0D7
:1003F000010202800A685206FCD4018821F0010142
:100400000180288800F014FB094A0A4B00F024FB05
:100410000022094B00F020FB4FF0FF3200F051FCAE
:10042000BDE8704000F0CABA241400400C0C014032
:10043000F168E388B5F8E43E0040754000EB8000C9
:100440008000B421B0FBF1F00149401D08807047E5
:100450003804004010B500F0E7F91948816941F00F
:10046000190181611748416821F0E06141604168EC
:1004700041F00071416014480168144A1140016064
:10048000011D0A6822F0FF020A60114A13686FF327
:100490001303136003680F4C23430360086840F0A4
:1004A0003300086010680C490843106001210F20D8
:1004B00000F054F80021BDE810400F2000F00EB805
:1004C0000010024000000140000C0140000F00FF3E
:1004D000001001403330330033330300C20701D032
:1004E000074A1170820701D5064A1170420701D5EB
:1004F000054A1170000701D50448017070470000DB
:100500000000002001000020020000200300002065
:1005100030B50C46050005D40121052000F01EF879
:10052000E9B205E00021052000F018F86842C1B2E8
:100530000520FFF7D3FF002C05DB01210A2000F086
:100540000DF8E1B205E000210A2000F007F8604252
:10055000C1B2BDE830400A20FFF7C0BF10B5274A3E
:10056000C30709D0136801292CD023F001031360BD
:10057000136843F002031360830709D51368012948
:1005800027D023F010031360136843F02003136097
:100590001B4B440709D51468012921D024F40074A9
:1005A0001460DA6842F00102DA60000709D5D86801
:1005B00001291CD020F00400D860D86840F0080061
:1005C000D86010BD43F001031360136823F00203E9
:1005D000D1E743F010031360136823F02003D6E73C
:1005E00044F400741460DA6822F00102DCE740F0A1
:1005F0000400D860D86820F00800E1E70C0C014046
:10060000001001400F4800210161C16014224261C5
:100610008161C161026842F00102026042680A4BD6
:100620001A4042600268094B1A400260026822F4D4
:1006300080220260426822F4FE0242608160C003B0
:1006400000F03EB8001002400000FFF8FFFFF6FE89
:10065000F0B5054614460F461E46184600F01EF833
:10066000C6F1040085400F20F0403840284361095E
:10067000890001F1E021D1F8002104F01F050123D8
:10068000AB401A43C1F8002104F1E02494F80014AF
:1006900041EA001084F80004F0BD00000721814306
:1006A0000A02054908684FF6FF031840034B184338
:1006B00010430860704700000CED00E00000FA05F0
:1006C000024A1140014302480160704780FFFF1F4A
:1006D00008ED00E010B50446FFF794FF15490868DF
:1006E00040F4803008600868400CFCD04FF4806013
:1006F0004860A41E4A68E0B242EA80404860486808
:1007000040F4803048600C48026842F032020260D7
:10071000086840F0807008600868400EFCD04868A7
:1007200040F0020048604868C0F381000228FAD116
:1007300010BD000000100240002002401148C169B5
:1007400041F00201C161104941F61F400880C820F4
:10075000091D08800C481038018841F4C04101800F
:10076000094900201031088007480838018841F005
:100770001001018004482838018841F001010180FE
:100780007047000000100240280400401E48017815
:10079000642931D2491CC9B201701C4802781C4836
:1007A0009142026802D242F0080201E022F00802FF
:1007B0000260184A12789142026802D242F48072B2
:1007C00001E022F4807202601348027813489142DB
:1007D000C26802D242F0020201E022F00202C260CC
:1007E0000F4A12789142C16802D241F0100101E033
:1007F00021F01001C16001E0002101700948018A67
:1008000021F0010101827047050000200000002056
:100810000C0C0140010000200200002000100140EB
:1008200003000020001000400F4810B5C16941F0DE
:100830001001C1610D4C208840F080002080A0890B
:1008400040F00100A08140F2CF2020856420A085E7
:100850000023362219461846FFF7FAFE208840F09A
:100860000100208010BD0000001002400010004078
:100870000648C16941F02001C161054940F2CF201D
:1008800008800020091F0880704700000010024007
:10089000281400400F4A1068C00601D4642115E0F6
:1008A0001068800702D46421002010E01068C1079E
:1008B0006FF0630004D01168890603D4002105E0BD
:1008C000642104E01168490603D401466420FFF75F
:1008D0001FBE7047080801400748816941F00401C4
:1008E000816106480168064A114001600168054AB5
:1008F00011430160704700000010024000080140F1
:1009000000FF00F0880088084FF0E0210A6922F01B
:1009100004020A610649C00800EB40020870C2EBFD
:10092000C0104FF6FF7202EAC00048807047000016
:10093000060000200849498848434FF0E0214861FB
:100940000020886101220A610A69D30701D0D2031D
:10095000FAD50861886170470600002008490978C7
:1009600048434FF0E02148610020886101220A617C
:100970000A69D30701D0D203FAD5086188617047AC
:10098000060000200920FFF7A5FE4820FFF7BCFF66
:10099000FFF7A2FFFFF75EFDFFF794FC064C012076
:1009A000207003E0207820B10128FBD1FFF765FC1F
:1009B000F8E7FFF76FFFF5E70400002021F00042A1
:1009C000A2F16052B2F5801F01F0004328BFD2F1BE
:1009D0007F6C0BD95FEA001C43EAC20242EB507005
:1009E00018BF704728BF20F001007047B2F5801F84
:1009F000BCBF184670474FEA410C1CF5001F02D2DD
:100A0000084600F027B970B500F0D0F80000008962
:100A1000FFF7F6BF4FF00040A0F5800070470000E0
:100A200002494FF0000000F01AB900BF0000F87F43
:100A3000B0FA80F310FA03F10AD0C3F11D0303F5F5
:100A400080634FEA41504FEA035202EBD1217047D5
:100A50004FF0000070470000DFF848C170B51CEA95
:100A6000111E1EBF1CEA13159EEA0C0F95EA0C0F0F
:100A700000F06F8081EA030423EA4C134EEAD47E2F
:100A800021EA4C1141F4801143F48013AE44A1FBE0
:100A9000024CA0FB0365AEF17F7E361955EB0C05C9
:100AA000A1FB034C4CF10003A0FB021C16EB0C064F
:100AB000654153F10003094218BF46F0010613F4E3
:100AC000007F0BD14FEA03314FEA0530340341EA8E
:100AD000155140EA16506FF003020AE04FEAC321B5
:100AE0004FEAC520F40241EA555140EA56506FF0F2
:100AF000020202EB2E4201EB025585EACE710AD0CA
:100B00005FEA440C18BF24F0004450F1000041F1AA
:100B1000000120EAD47040F2FE7C624500D270BD34
:100B2000A84214BF4FF080444FF04044002E08BF4D
:100B30000024BEF1806FA8BFA1F1C041BDE87040A4
:100B400080F282804FF0000001F1C04101F00041CD
:100B500070479EEA0C0F0CEA131518BF95EA0C0FAC
:100B600006D04FF0000081EA030E0EF0004170BD88
:100B700000F01CF88900013E00F007B800F009B849
:100B80004FEA430C5FEA5C5C08D081EA030100F0A5
:100B90005BB84FEA410C5FEA5C5CF6D14FF00000B5
:100BA000014970470000FF070000F87F0EF1020EB8
:100BB0002EF0030E5EF8046B364205D4012A43EB97
:100BC000030515F5001F12D8012841EB010C1CF597
:100BD000001F0CD80ED14FEAD17C15F5001F0CEB8D
:100BE0004C0C0CF1020C08BF4CEBD37C04E04FF032
:100BF000080C01E04FEAD37C0CEB4C0526FA05F615
:100C000006F00706B6F1040C06D20EEB860CBDE822
:100C100070404CF0010C6047DFE80CF0090B020259
:100C20004FF000414FF00000A1F5002170BD1946C2
:100C30001046012851EB010418BFD4F5001484BFFD
:100C4000002001F0004170BD0808A0F500114FEA36
:100C500031017047FF2141EAD050C00570470CF0C8
:100C60000F03092B08BF082000F059800A2B0BD076
:100C7000082B18BF704708BF1CF0400F0AD04FF078
:100C800000004FF0000170471CF0400F18BF4FF0FC
:100C9000004070471CF0100F08D020F0704300F0A7
:100CA0007F4242EAD3014FEA4370704700F0604050
:100CB00021F07F4242EA000201F07F4040EA727078
:100CC00070474FF0FF0C4CF4E06C1CEA11531CBF52
:100CD0009CEA030C9445C2BFDA4201EB0251704713
:100CE000002B0DD0BCF1000F0FD0002A01F0004105
:100CF000A4BF41F0E04141F07F614FF00000704738
:100D000001F000414FF00000704750EA01334FF00E
:100D10009B0C18BF4CF0806C7FF482AE70471CF4C3
:100D2000801F11D01CF4E02F03D06FEACC314900B2
:100D300070474FF04050EFF3008222F0704242EAD9
:100D4000000282F3008870474FF0000070470000F7
:100D5000700D0008000000200C0000006C0100086D
:100D60007C0D00080C0000206404000088010008CD
:0C0D700000000000000000000000000077
:0400000508000131BD
:00000001FF
