:020000040800F2
:1000000068040020D5010008D9010008DB010008C0
:10001000DD010008DF010008E10100080000000028
:10002000000000000000000000000000E3010008E4
:10003000E501000800000000E7010008E9010008F0
:10004000EB010008EB010008EB010008EB010008E0
:10005000EB010008EB010008EB010008EB010008D0
:10006000EB010008EB010008EB010008EB010008C0
:10007000EB010008EB010008EB010008EB010008B0
:10008000EB010008EB010008EB010008EB010008A0
:10009000EB010008EB010008EB010008EB01000890
:1000A000EB010008EB010008EB010008EB01000880
:1000B000250A0008EB010008EB010008EB0100082D
:1000C000EB010008EB010008EB010008EB01000860
:1000D000EB010008350A0008EB010008EB010008FD
:1000E000EB010008EB010008EB010008EB01000840
:1000F000EB010008EB010008EB010008EB01000830
:10010000EB010008EB010008EB010008EB0100081F
:10011000EB010008EB010008EB010008EB0100080F
:10012000EB010008EB010008EB010008EB010008FF
:1001300000F002F800F03FF80AA090E8000C8244BA
:100140008344AAF10107DA4501D100F034F8AFF297
:10015000090EBAE80F0013F0010F18BFFB1A43F0A5
:1001600001031847B40F0000D40F0000103A24BF59
:1001700078C878C1FAD8520724BF30C830C144BF0C
:1001800004680C607047000000230024002500264E
:10019000103A28BF78C1FBD8520728BF30C148BFEA
:1001A0000B607047782900F06580002070471FB50C
:1001B0001FBD10B510BD00F09BF91146FFF7F7FF0A
:1001C00000F0AEFC00F0B9F903B4FFF7F2FF03BC96
:1001D00000F099FC08480047FEE7FEE7FEE7FEE76F
:1001E000FEE7FEE7FEE7FEE7FEE7FEE70348044919
:1001F000024A044B704700003101000868000020EB
:100200006804002068000020704700000FB4044913
:1002100010B503AA029800F03DF910BC5DF814FB7C
:100220000400002070B5044685690068C10601D548
:10023000302600E02026C00707D070BDD4E9012198
:1002400030469047206A401C20626D1EF6D570BD76
:1002500070B5044685690078C00707D170BDD4E940
:10026000012120209047206A401C20626D1EF6D597
:1002700070BD000070B504460D4621461068AFF30E
:1002800000802188090502D50F4A7A4402E00E4A0F
:100290007A440E32002104F1240305E000F00F0639
:1002A0000009965D5E54491C0028F7D12078002390
:1002B000000704D5702D02D009B102231132204667
:1002C000BDE8704000F08DB8600E00002DE9F047E9
:1002D0004FF0000A89460446C0F820A02046E16895
:1002E0008847002876D0252806D0D4E901219047F8
:1002F000206A401C2062F1E7E1682046002588471B
:10030000C4F81CA006460027C4F818A02A2E09D05D
:10031000304600F0F1FB38B304EB8708303EC8F8F4
:10032000186019E059F8041B204604EB870291611C
:10033000E1688847012F064618D1E069002820DAD5
:1003400025F020051DE0D8F8180000EB800006EB32
:1003500040003038C8F818002046E1688847064653
:1003600000F0CAFB0028EED1012F0AD02E2E08D1B2
:100370002046E16888477F1C0646022F45F020058D
:10038000C4DBA069002803DA404245F00105A06102
:10039000E80701D025F01005B6B1A6F141001928F3
:1003A00002D8203645F400654A463146204625608D
:1003B0004D46FFF7F7FE58B1012806D0ED1D25F098
:1003C000070000F1080989E704E005F1040985E761
:1003D00030468AE7206ABDE8F0877047704770476B
:1003E00070472DE9F0470D4699469246044600F1C4
:1003F00024080168880604D5E06921F01001216015
:1004000000E00120A84201DD471B00E00027A169B0
:100410007A1902EB0900081AA0612078C00602D4FC
:100420002046FFF7FFFE002608E0D4E901211AF874
:1004300006009047206A401C761C20624E45F4DB83
:100440002078C0060AD52046FFF7ECFE06E0D4E986
:10045000012130209047206A401C2062381EA7F1FD
:100460000107F4DC07E0D4E9012118F80500904702
:10047000206A401C2062281EA5F10105F3DC2046FD
:10048000FFF7E6FE2078000602D50220BDE8F087DF
:100490000120FBE7074B70B50D467B4400F011F8D7
:1004A0000446284600F020F810B14FF0FF3070BD30
:1004B000204670BD6B06000001694A1C0261087885
:1004C000704700B58FB0CDE9013100210591054994
:1004D0007944CDE9031011466846FFF7F7FE0FB0E7
:1004E00000BD0000E5FFFFFF007B00F080007047CB
:1004F000754600F02BF8AE4605006946534620F0DD
:100500000700854618B020B5FFF770FEBDE8204013
:100510004FF000064FF000074FF000084FF0000BBF
:1005200021F00701AC46ACE8C009ACE8C009ACE872
:10053000C009ACE8C0098D46704710B50446AFF35A
:1005400000802046BDE81040FFF73EBE00487047DF
:10055000080000202DE9F047254C07461E4620687C
:100560009046894640F040002060206840F08000BE
:1005700020601F4D083D28680006FCD500F07EF97C
:1005800000F0D2F87806000E00F04AF9484600F074
:1005900047F900F0C9F8206840F04000206020686A
:1005A00040F08000206028680006FCD500F066F965
:1005B000012000EB4700C0B200F032F900F0B4F8BF
:1005C00000240BE000F0DCF808F8040000F08EF8DE
:1005D00000F006F900F08AF8641CE4B2B442F1D3EA
:1005E00000F06AF9BDE8F0470A2000F057B80000B3
:1005F000100C01402DE9F0411D4616460F460446F9
:10060000082B00D908251948016841F04001016014
:10061000016841F0800101601448083801680168F0
:100620000906FCD500F02AF96006000E00F0F8F883
:1006300000F07AF8384600F0F3F800F075F800247E
:100640000AE0305D00F0ECF800F050F800F06CF8D3
:1006500000F04CF8641CE4B2AC42F2D300F02CF988
:10066000BDE8F0410A2000F019B80000100C01406C
:100670004FF0E0210A6922F004020A610649C0082D
:1006800000EB40020870C2EBC0104FF6FF7202EAA6
:10069000C0004880704700000000002008494988D9
:1006A00048434FF0E02148610020886101220A613F
:1006B0000A69D30701D0D203FAD50861886170476F
:1006C000000000200849097848434FF0E0214861C4
:1006D0000020886101220A610A69D30701D0D20390
:1006E000FAD5086188617047000000200420FFF7F8
:1006F000E9BF00000A48816941F0080181610948A9
:10070000016821F07F410160016841F0EE41016024
:1007100004480C30016841F0C001016070470000DE
:1007200000100240000C0140144810B5016800247C
:1007300041F080010160016841F040010160042046
:10074000FFF7C0FF0D490839086800F0800008E095
:100750000868641CE4B200F08000C82C01D90120B4
:1007600010BD0028F4D10549091D0A6842F0400275
:100770000A600A6842F080020A6010BD100C014055
:100780002DE9F047154D0026286840F080002860CC
:10079000DFF848803446A8F108084FF001092F1D02
:1007A000286840F0400028600420FFF78BFFD8F84D
:1007B0000000000605D5C4F1070109FA01F0304335
:1007C000C6B2386840F0400038600420FFF77AFF76
:1007D000641C082CE4DB3046BDE8F087100C0140B7
:1007E00010B50E4C206840F0400020600420FFF758
:1007F00069FF206840F0800020600420FFF762FF5E
:10080000201F016841F0400101600420FFF75AFFFA
:10081000206840F04000206010BD0000140C014032
:100820002DE9F041144C002607464FF00108251F22
:10083000206840F040002060C6F1070108FA01F08E
:10084000384204D0286840F08000286003E0206827
:1008500040F080002060286840F0400028600420BC
:10086000FFF730FF761C082EE2DB206840F04000E6
:100870002060BDE8F0810000140C01400D4810B567
:10088000016841F040010160016841F080010160B0
:100890000420FFF717FF074C241D206840F080005C
:1008A00020600420FFF70EFF206840F04000206029
:1008B00010BD0000100C01400B4810B5016841F05C
:1008C00040010160016841F080010160041F20685F
:1008D00040F0400020600420FFF7F4FE206840F064
:1008E0008000206010BD0000140C01400F48002162
:1008F0000161C160142242618161C161026842F0FC
:100900000102026042680A4B1A4042600268094BC9
:100910001A400260026822F480220260426822F4D7
:10092000FE0242608160C00300F03EB80010024049
:100930000000FFF8FFFFF6FEF0B5054614460F462F
:100940001E46184600F01EF8C6F1040085400F2030
:10095000F040384028436109890001F1E021D1F8D5
:10096000002104F01F050123AB401A43C1F8002108
:1009700004F1E02494F8001441EA001084F8000423
:10098000F0BD0000072181430A02054908684FF6BF
:10099000FF031840034B18431043086070470000E2
:1009A0000CED00E00000FA05024A11400143024844
:1009B0000160704780FFFF1F08ED00E010B504469E
:1009C000FFF794FF1549086840F480300860086814
:1009D000400CFCD04FF480604860A41E4A68E0B22E
:1009E00042EA80404860486840F4803048600C48E3
:1009F000026842F032020260086840F080700860CD
:100A00000868400EFCD0486840F002004860486822
:100A1000C0F381000228FAD110BD0000001002408E
:100A2000002002404FF08040018A018A21F001013C
:100A30000182704703480088800602D50148001DE6
:100A4000008870470038014070B50446080100F086
:100A500001FA05462448604300F0FCF9294600F0FD
:100A600017F9054600F0D6F984B2204600F0F2F9F5
:100A7000294600F04DFA042100F0FBFA00F0CAF913
:100A80004FF6FF7101EA04110A181848816941F014
:100A900004018161816941F48041816114490B68DD
:100AA00023F47F630B600B6843F40B630B60C16836
:100AB00041F48041C160C16821F48041C1600D48AA
:100AC0000280001D018842F20C021143018001885E
:100AD00041F020010180BDE870400223252203215E
:100AE0000846FFF729BF000040420F0000100240F7
:100AF000040801400838014030380A2801D201209A
:100B0000704700207047704704490A885206FCD598
:100B1000024AC1B2121D1180704700000038014026
:100B2000B2B00920FFF74AFF4820FFF7A1FD4FF4BC
:100B3000E1314820FFF788FFFFF7DCFD18A0FFF741
:100B400065FB002069460854401C6428FBDB0A460C
:100B5000082300215020FFF74DFD0823194650209F
:100B600002AAFFF747FD08231021502004AAFFF72F
:100B700041FD08231821502006AAFFF73BFD202342
:100B800019AA00215020FFF7E5FC002419AD2146E9
:100B90002A5D07A0FFF73AFB641C202CF7DBFEE779
:100BA000B3F5CABCBBAFB3C9B9A60D0A00000000BB
:100BB0003078253258203D2030782532580D0A00F3
:100BC00090EA010F48BF81F0004100F1B281421A62
:100BD0003CBF801A89184FEAD0524FF07F4C1CEA74
:100BE000410FA2EBD15318BF9CEA026F00F03B808B
:100BF0004FF0004C4CEA00204CEA012121FA03FCA2
:100C000010EB0C0C1ED202F1FF325FEA1C2040EB0D
:100C1000C25038BF70471CF07F0F4FEA400C18BF1E
:100C2000BCF17F4F38BF7047C3F12003994008BF24
:100C300020F00100BCF17F4F38BF7047A0F1C040E9
:100C400000F061B94FEA3C00000A40EBC25028BFF7
:100C50001CF0FF0F4FEA400CE6D018BFBCF17F4FED
:100C600038BF7047EAE79CEA026F05D010EA5C0FD4
:100C700008BF00F00040704710B500F0FEF800BF5C
:100C800064FBBE3E014800F0C2B900BF0000C07F57
:100C90004FF47F0C1CEAD0121EBF1CEAD11392EA5B
:100CA0000C0F93EA0C0F00F0858090EA010F48BF0B
:100CB00042F4807240F4000C41F400002CF07F41BB
:100CC00020F07F4000B58142A2EB03020FF2081C26
:100CD000ACEB504EC0F100009EF800E04FEA4E0E23
:100CE00000FB0EFC38BF49004FEA2C1C02F5FA024B
:100CF0000CFB0EF34FEACE1E4FEA112C4FEAC12136
:100D00000EEB635E42EB22420EFB0CFC4FEA1C53DF
:100D100000FB03114FEA112C4FEA01310EFB0CFCD2
:100D20004FEADC4C00FB0C11C14228BF09184CEB08
:100D300003335DF804EB10EB410143EBC250B2F515
:100D40007C0F38BF704729D512F0F00F1CBF00F19F
:100D5000C04000F000407047008182838485868710
:100D600088898B8C8D8E8F919293959697999A9C6A
:100D70009D9FA0A2A3A5A7A8AAACAEB0B2B3B5B7D9
:100D8000B9BCBEC0C2C5C7C9CCCED1D4D7D9DCDFAF
:100D9000E2E6E9ECF0F3F7FAFE0000004FEA400C5F
:100DA0000CF1807CBCF17E4F28BF7047B0F1C04091
:100DB00000F0A9B890EA010F0CEAD11348BF42F441
:100DC0008072624538BF634507D213F47F0F16D097
:100DD00080EA010000F00040704710B500F04DF8C7
:100DE000097EFC3E00F005B880EA010000F00040FA
:100DF000704780EA010000F0004000F084B812F46F
:100E00007F0F04BF0248704780EA010000F07BB802
:100E10000000C07FC10DD1F19E0206DB4FEA002326
:100E200043F0004323FA02F07047004207D54FEA2F
:100E30004001B1F1FE4F02D24FF00000704710B5F3
:100E400000F01BF849922480002070476FEA2000D0
:100E500070470000B0FA80F310FA03F2C3F19D036B
:100E60000AD0D90501EB1220530638BF704700F1B4
:100E7000010008BF20F0010070470EF1020E2EF0B5
:100E8000030E5EF8044B244204D44FEA4102B2F14F
:100E90007F4F11D84FEA4003B3F17F4F0CD80ED1EA
:100EA0004FEAD07CB2F17F4F0CEB4C0C0CF1020CF2
:100EB00008BF4CEBD17C04E04FF0080C01E04FEA96
:100EC000D17C0CEB4C0324FA03F404F00704B4F1D6
:100ED000040C06D20EEB840CBDE810404CF0010C63
:100EE0006047DFE80CF0070802024FF00040A0F571
:100EF000800010BD0846420018BFD2F1807288BF42
:100F000000F0004010BDFF2141EAD050C0057047FD
:100F100080F0004090EA010F7FF559AE81F000416A
:100F200000F007B890EA010F48BF81F000413FF59B
:100F30004EAE421A04D882F00042A0EB02001144E7
:100F40004FEAD0524FF07F4C1CEA410FA2EBD15335
:100F500018BF9CEA026F4AD04FF0004C4CEA0020C8
:100F60004CEA012121FA03FCB0EB0C0C0FD412F077
:100F7000FE0F36D05FEA4C001DD5001240EBC25088
:100F800038BF70471CF03F0F18BF70470BE0A2F14D
:100F900001025FEA1C2040EBC25038BF70471CF0D2
:100FA0007F0F18BF7047C3F12003994014BF401E44
:100FB00020F00100704780084FEA122308BF7047F5
:100FC000B0FA80FCA2EB0C02CCF1280C60FA0CF019
:100FD00093EA122F04BF00EBC25070474FEAC37070
:100FE0007047130A5FEADC1008BF7047F6E79CEA17
:100FF000026F04D010EA5C0F08BF0020704710B5E4
:10100000FFF73BFF40DFF63E81F0004070470CF0F9
:101010000F03092B08BF082000F051800A2B0BD0CA
:10102000082B18BF704708BF1CF0400F0AD04FF0C4
:1010300000004FF0000170471CF0400F18BF4FF048
:10104000004070471CF0100F08D020F0704300F0F3
:101050007F4242EAD3014FEA4370704700F060409C
:1010600021F07F4242EA000201F07F4040EA7270C4
:1010700070474FF0FF0212EAD0521CBF92F0FF03FC
:101080008B42C2BFD14200EBC1507047002A0AD048
:10109000002B0BD0002900F00040A4BF40F0FE4020
:1010A00040F40000704700F00040704743024FF0EA
:1010B0000B0C18BF4CF0806C7FF4E4AD70471CF44F
:1010C000801F11D01CF4E02F03D06FEACC3149000F
:1010D00070474FF04050EFF3008222F0704242EA36
:1010E000000282F3008870474FF0000070473031F3
:1010F000323334353637383941424344454640303F
:1011000058003031323334353637383961626364F0
:1011100065664030780000003811000800000020AB
:10112000080000006C0100084011000808000020C1
:1011300060040000880100080000000000000000BA
:0400000508000131BD
:00000001FF
