:020000040800F2
:1000000060040020B1010008B5010008B701000834
:10001000B9010008BB010008BD0100080000000094
:10002000000000000000000000000000BF01000808
:10003000C101000800000000C3010008C50100085C
:10004000C7010008C7010008C7010008C701000870
:10005000C7010008C7010008C7010008C701000860
:10006000C7010008C7010008C7010008C701000850
:10007000C7010008C7010008C7010008C701000840
:10008000C7010008C7010008C7010008C701000830
:10009000C7010008C7010008C7010008C701000820
:1000A000C7010008C7010008C7010008C701000810
:1000B000C7010008C7010008C7010008C701000800
:1000C000C7010008C7010008C7010008C7010008F0
:1000D000C7010008C7010008C7010008C7010008E0
:1000E000C7010008C7010008C7010008C7010008D0
:1000F000C7010008C7010008C7010008C7010008C0
:10010000C7010008C7010008C7010008C7010008AF
:10011000C7010008C7010008C7010008C70100089F
:10012000C7010008C7010008C7010008C70100088F
:1001300000F002F800F02CF80AA090E8000C8244CD
:100140008344AAF10107DA4501D100F021F8AFF2AA
:10015000090EBAE80F0013F0010F18BFFB1A43F0A5
:100160000103184734020000440200000023002469
:1001700000250026103A28BF78C1FBD8520728BFB7
:1001800030C148BF0B6070471FB51FBD10B510BD13
:1001900000F02BF81146FFF7F7FF00F0F3F800F03E
:1001A00049F803B4FFF7F2FF03BC00F051F8000078
:1001B00008480047FEE7FEE7FEE7FEE7FEE7FEE74A
:1001C000FEE7FEE7FEE7FEE703480449024A044B68
:1001D000704700003101000860000020600400202A
:1001E00060000020704770477047754600F02CF89B
:1001F000AE4605006946534620F00700854618B014
:1002000020B5FFF7E1FFBDE820404FF000064FF0BA
:1002100000074FF000084FF0000B21F00701AC463B
:10022000ACE8C009ACE8C009ACE8C009ACE8C0095A
:100230008D46704710B50446AFF300802046BDE8F8
:100240001040FFF7AEBF00000048704700000020DC
:1002500001491820ABBEFEE72600020070470000EF
:100260000848C16821F04001C160C16821F08001E7
:10027000C160C16821F48071C160C16821F400715E
:10028000C1607047001001400A48816981610A48D5
:10029000016821F07F410160416821F0FF01416068
:1002A000016841F0EE410160416841F07701416031
:1002B0007047000000100240001001400F4800216C
:1002C0000161C160142242618161C161026842F032
:1002D0000102026042680A4B1A4042600268094B00
:1002E0001A400260026822F480220260426822F40E
:1002F000FE0242608160C00300F006B800100240B8
:100300000000FFF8FFFFF6FE024A114001430248D9
:100310000160704780FFFF1F08ED00E010B5044644
:10032000FFF7CCFF1549086840F480300860086882
:10033000400CFCD04FF480604860A41E4A68E0B2D4
:1003400042EA80404860486840F4803048600C4889
:10035000026842F032020260086840F08070086073
:100360000868400EFCD0486840F0020048604868C9
:10037000C0F381000228FAD110BD00000010024035
:10038000002002400920FFF7C9FFFFF77DFF00BFF3
:10039000FFF766FFFCE70000A8030008000000204C
:0803A000600400006C0100087C
:0400000508000131BD
:00000001FF
