:020000040800F2
:1000000070040020CD010008D1010008D3010008D0
:10001000D5010008D7010008D90100080000000040
:10002000000000000000000000000000DB010008EC
:10003000DD01000800000000DF010008E101000808
:10004000E3010008E3010008E3010008E301000800
:10005000E3010008E3010008E3010008E3010008F0
:10006000E3010008E3010008E3010008E3010008E0
:10007000E3010008E3010008E3010008E3010008D0
:10008000E3010008E3010008E3010008E3010008C0
:10009000E3010008E3010008E3010008E3010008B0
:1000A000E3010008E3010008E3010008E3010008A0
:1000B000E3010008E3010008E3010008E301000890
:1000C000E3010008E3010008E3010008E301000880
:1000D000E3010008E3010008E3010008E301000870
:1000E000E3010008E3010008E3010008E301000860
:1000F000E3010008E3010008E3010008E301000850
:10010000E3010008E3010008E3010008E30100083F
:10011000E3010008E30100087D050008E301000891
:10012000E3010008E3010008E3010008E30100081F
:1001300000F002F800F03AF80AA090E8000C8244BF
:100140008344AAF10107DA4501D100F02FF8AFF29C
:10015000090EBAE80F0013F0010F18BFFB1A43F0A5
:1001600001031847DC050000FC050000103A24BF1D
:1001700078C878C1FAD8520724BF30C830C144BF0C
:1001800004680C607047000000230024002500264E
:10019000103A28BF78C1FBD8520728BF30C148BFEA
:1001A0000B6070471FB51FBD10B510BD00F02BF8D8
:1001B0001146FFF7F7FF00F07DFA00F049F803B4AD
:1001C000FFF7F2FF03BC00F051F8000008480047B9
:1001D000FEE7FEE7FEE7FEE7FEE7FEE7FEE7FEE7F7
:1001E000FEE7FEE703480449024A044B704700005B
:1001F0003101000870000020700400207000002011
:10020000704770477047754600F02CF8AE46050001
:100210006946534620F00700854618B020B5FFF721
:10022000E1FFBDE820404FF000064FF000074FF01F
:1002300000084FF0000B21F00701AC46ACE8C00904
:10024000ACE8C009ACE8C009ACE8C0098D4670470D
:1002500010B50446AFF300802046BDE81040FFF71C
:10026000AEBF0000004870470C0000200149182074
:10027000ABBEFEE726000200704741B2084600F020
:1002800063B80000194810B5816941F01901816116
:100290001748416821F0E0614160416841F0007118
:1002A000416014480168144A11400160011D0A6848
:1002B00022F0FF020A60114A13686FF31303136000
:1002C00003680F4C23430360086840F03300086064
:1002D00010680C490843106001210F2000F05EF8FF
:1002E0000021BDE810400F2000F014B800100240BB
:1002F00000000140000C0140000F00FF0010014011
:100300003330330033330300404241B2084600F03B
:100310001BB80000C20701D0074A1170820701D53F
:10032000064A1170420701D5054A1170000701D530
:100330000448017070470000000000200100002008
:10034000020000200300002030B50C46050005D453
:100350000121052000F022F8E9B205E00021052086
:1003600000F01CF86842C1B20520FFF7D3FF002C53
:1003700005DB01210A2000F011F8E1B205E00021BF
:100380000A2000F00BF86042C1B2BDE830400A20FC
:10039000FFF7C0BF00210846FFF7D6BF10B5274AB8
:1003A000C30709D0136801292CD023F0010313607F
:1003B000136843F002031360830709D5136801290A
:1003C00027D023F010031360136843F02003136059
:1003D0001B4B440709D51468012921D024F400746B
:1003E0001460DA6842F00102DA60000709D5D868C3
:1003F00001291CD020F00400D860D86840F0080023
:10040000D86010BD43F001031360136823F00203AA
:10041000D1E743F010031360136823F02003D6E7FD
:1004200044F400741460DA6822F00102DCE740F062
:100430000400D860D86820F00800E1E70C0C014007
:10044000001001400F4800210161C1601422426187
:100450008161C161026842F00102026042680A4B98
:100460001A4042600268094B1A400260026822F496
:1004700080220260426822F4FE0242608160C00372
:1004800000F03EB8001002400000FFF8FFFFF6FE4B
:10049000F0B5054614460F461E46184600F01EF8F5
:1004A000C6F1040085400F20F04038402843610920
:1004B000890001F1E021D1F8002104F01F0501239A
:1004C000AB401A43C1F8002104F1E02494F8001471
:1004D00041EA001084F80004F0BD000007218143C8
:1004E0000A02054908684FF6FF031840034B1843FA
:1004F00010430860704700000CED00E00000FA05B2
:10050000024A1140014302480160704780FFFF1F0B
:1005100008ED00E010B50446FFF794FF15490868A0
:1005200040F4803008600868400CFCD04FF48060D4
:100530004860A41E4A68E0B242EA804048604868C9
:1005400040F4803048600C48026842F03202026099
:10055000086840F0807008600868400EFCD0486869
:1005600040F0020048604868C0F381000228FAD1D8
:1005700010BD000000100240002002401E4801781B
:10058000642931D2491CC9B201701C4802781C4848
:100590009142026802D242F0080201E022F0080211
:1005A0000260184A12789142026802D242F48072C4
:1005B00001E022F4807202601348027813489142ED
:1005C000C26802D242F0020201E022F00202C260DE
:1005D0000F4A12789142C16802D241F0100101E045
:1005E00021F01001C16001E0002101700948018A79
:1005F00021F001010182704704000020000000206A
:100600000C0C0140010000200200002000100140FD
:1006100003000020001000400F4810B5C16941F0F0
:100620001001C1610D4C208840F080002080A0891D
:1006300040F00100A08140F2CF2020856420A085F9
:100640000023362219461846FFF722FF208840F083
:100650000100208010BD000000100240001000408A
:100660004FF0E0210A6922F004020A610649C0083D
:1006700000EB40020870C2EBC0104FF6FF7202EAB6
:10068000C0004880704700000600002008494988E3
:1006900048434FF0E02148610020886101220A614F
:1006A0000A69D30701D0D203FAD50861886170477F
:1006B000060000200920FFF72DFF4820FFF7D0FF9C
:1006C000FFF7AAFFFFF7DEFD4FF47A756FF06306C0
:1006D00000242046FFF7D1FD0A20FFF7D7FF641C56
:1006E000E4B2642CF5D32846FFF7D0FF6420FFF76F
:1006F0000BFE2846FFF7CAFF64210020FFF724FE07
:100700002846FFF7C3FF00216420FFF71DFE28469F
:10071000FFF7BCFF642134463046FFF715FE28463C
:10072000FFF7B4FF21466420FFF70EFE2846FFF7CF
:10073000ADFFFFF72FFE2846FFF7A8FFC8E7000030
:1007400060070008000000200C0000006C01000899
:100750006C0700080C0000206404000088010008F9
:0C0760000000000000000000000000008D
:0400000508000131BD
:00000001FF
