:020000040800F2
:1000000068040020CD010008D1010008D3010008D8
:10001000D5010008D7010008D90100080000000040
:10002000000000000000000000000000DB010008EC
:10003000DD01000800000000DF010008E101000808
:10004000E3010008E3010008E3010008E301000800
:10005000E3010008E3010008E3010008E3010008F0
:10006000E3010008E3010008E3010008E3010008E0
:10007000E3010008E3010008E3010008E3010008D0
:10008000E3010008E3010008E3010008E3010008C0
:10009000E3010008E3010008E3010008E3010008B0
:1000A000E3010008E3010008E3010008E3010008A0
:1000B000E3010008E3010008E3010008E301000890
:1000C000E3010008E3010008E3010008E301000880
:1000D000E3010008E3010008E3010008E301000870
:1000E000E3010008E3010008E3010008E301000860
:1000F000E3010008E3010008E3010008E301000850
:10010000E3010008E3010008E3010008E30100083F
:10011000E3010008E3010008E3010008E30100082F
:10012000E3010008E3010008E3010008E30100081F
:1001300000F002F800F03AF80AA090E8000C8244BF
:100140008344AAF10107DA4501D100F02FF8AFF29C
:10015000090EBAE80F0013F0010F18BFFB1A43F0A5
:1001600001031847C4040000E4040000103A24BF4F
:1001700078C878C1FAD8520724BF30C830C144BF0C
:1001800004680C607047000000230024002500264E
:10019000103A28BF78C1FBD8520728BF30C148BFEA
:1001A0000B6070471FB51FBD10B510BD00F02BF8D8
:1001B0001146FFF7F7FF00F007FA00F049F803B423
:1001C000FFF7F2FF03BC00F051F8000008480047B9
:1001D000FEE7FEE7FEE7FEE7FEE7FEE7FEE7FEE7F7
:1001E000FEE7FEE703480449024A044B704700005B
:1001F0003101000868000020680400206800002029
:10020000704770477047754600F02CF8AE46050001
:100210006946534620F00700854618B020B5FFF721
:10022000E1FFBDE820404FF000064FF000074FF01F
:1002300000084FF0000B21F00701AC46ACE8C00904
:10024000ACE8C009ACE8C009ACE8C0098D4670470D
:1002500010B50446AFF300802046BDE81040FFF71C
:10026000AEBF00000048704704000020014918207C
:10027000ABBEFEE726000200704700B501210F204B
:1002800000F076F801210F205DF804EB00F0C4B80F
:10029000194810B5816941F0190181611748416819
:1002A00021F0E0614160416841F000714160144813
:1002B0000168144A11400160011D0A6822F0FF0222
:1002C0000A60114A13686FF31303136003680F4C3D
:1002D00023430360086840F03300086010680C494D
:1002E0000843106001210F2000F042F80021BDE812
:1002F00010400F2000F090B80010024000000140B4
:10030000000C0140000F00FF0010014033303300AB
:100310003333030000B501210F2000F029F800213C
:10032000052000F079F801210A205DF804EB00F0C7
:1003300073B800B500210F2000F01AF801210F203A
:100340005DF804EB00F068B800B501210F2000F063
:100350000FF80121052000F05FF800210A205DF868
:1003600004EB00F059B800210F2000F055B8000050
:1003700010B5274AC30709D0136801292CD023F0F0
:1003800001031360136843F002031360830709D568
:100390001368012927D023F010031360136843F07A
:1003A000200313601B4B440709D51468012921D091
:1003B00024F400741460DA6842F00102DA60000785
:1003C00009D5D86801291CD020F00400D860D8686D
:1003D00040F00800D86010BD43F0010313601368BB
:1003E00023F00203D1E743F010031360136823F0F6
:1003F0002003D6E744F400741460DA6822F00102A6
:10040000DCE740F00400D860D86820F00800E1E79D
:100410000C0C014000100140174AC30705D01368B7
:1004200001291CD023F008031360830705D5136846
:10043000012917D023F480731360104A430705D5B0
:10044000D368012911D023F00203D360000705D53A
:10045000D06801290CD020F01000D060704743F024
:100460000803E1E743F48073E6E743F00203ECE7B7
:1004700040F01000F1E700000C0C014000100140BA
:1004800000B568B101210520FFF772FF00210A20A5
:10049000FFF76EFF01210F205DF804EBFFF7BCBFF3
:1004A00000210520FFF764FF0121F0E70F4800213C
:1004B0000161C160142242618161C161026842F040
:1004C0000102026042680A4B1A4042600268094B0E
:1004D0001A400260026822F480220260426822F41C
:1004E000FE0242608160C00300F006B800100240C6
:1004F0000000FFF8FFFFF6FE024A114001430248E8
:100500000160704780FFFF1F08ED00E010B5044652
:10051000FFF7CCFF1549086840F480300860086890
:10052000400CFCD04FF480604860A41E4A68E0B2E2
:1005300042EA80404860486840F4803048600C4897
:10054000026842F032020260086840F08070086081
:100550000868400EFCD0486840F0020048604868D7
:10056000C0F381000228FAD110BD00000010024043
:10057000002002404FF0E0210A6922F004020A61E3
:100580000649C00800EB40020870C2EBC0104FF6ED
:10059000FF7202EAC000488070470000000000209F
:1005A0000849498848434FF0E021486100208861AC
:1005B00001220A610A69D30701D0D203FAD5086182
:1005C00088617047000000200920FFF79FFF482046
:1005D000FFF7D0FFFFF75CFE4FF47A74FFF74DFE94
:1005E0002046FFF7DDFFFFF795FE2046FFF7D8FF17
:1005F000FFF7AAFE2046FFF7D3FFFFF79AFE20463B
:10060000FFF7CEFF0020FFF73BFF2046FFF7C8FFB4
:100610000120FFF735FF2046FFF7C2FFFFF7A3FEDB
:100620002046FFF7BDFFD9E748060008000000207C
:10063000040000006C0100084C06000804000020C3
:0C064000640400008801000800000000B5
:0400000508000131BD
:00000001FF
